S00B00006C63642E73726563E6
S11300000C942A000C943F000C943F000C943F0085
S11300100C943F000C943F000C943F000C943F0060
S11300200C943F000C943F000C943F000C943F0050
S11300300C943F000C943F000C943F000C943F0040
S11300400C943F000C943F000C943F000C943F0030
S11300500C943F0011241FBECFE5D8E0DEBFCDBF16
S113006010E0A0E6B0E0ECE1F3E002C005900D92F0
S1130070A238B107D9F70E942F010C948C010C947B
S1130080000082BB88B38E7F88BB88B38D7F88BB1A
S113009088B3846088BB8FE99FE00197F1F700C0C3
S11300A0000088B38B7F88BB089582BB88B38160CE
S11300B088BB88B38D7F88BB88B3846088BB8FE995
S11300C09FE00197F1F700C0000088B38B7F88BBE5
S11300D0089588E30E9441008FEC97E00197F1F7BF
S11300E000C0000081E00E9441008FE99FE0019779
S11300F0F1F700C0000082E00E9441008FE99FE018
S11301000197F1F700C0000086E00E9441008FECE7
S113011097E00197F1F700C000008CE00E944100D5
S11301208FEC97E00197F1F700C000000895CF939A
S1130130DF93EC0103C021960E9455008881811150
S1130140FACFDF91CF91089587B3886087BB88B3D6
S1130150877F88BB8FE39CE90197F1F700C000001B
S113016088B3886088BB87B3877F87BB089580E0A6
S113017090E016C0B39BFECF20EA2A95F1F7B39B1B
S11301800CC047E050E0491B510921E030E002C0B7
S1130190220F331F4A95E2F7822BB399FECF9F5F5C
S11301A0983040F30895BF92CF92DF92EF92FF927E
S11301B00F931F93CF93DF937C018B010E94A400C4
S11301C0B399FECFB39BFECF86B3C82FC87083FD0F
S11301D0FBCF0E94B700C82E0E94B700D82F0E9400
S11301E0B700D82E0E94B700B82E0E94B7002D2F5A
S11301F030E02C0D311D2D0D311D2B0D311D90E0E6
S11302002817390729F4F701C082F801D08201C008
S1130210C1E08C2FDF91CF911F910F91FF90EF9050
S1130220DF90CF90BF900895CF93DF93D82FCDEC7C
S11302308C9FC12D1124C695C695C69580E38C0F5D
S11302400E945500CC0F8C2F880F880FC80F8D2F5C
S11302508C1B805D0E945500DF91CF910895CF9350
S1130260DF9300D0CDB7DEB78FEF81BB87B3876054
S113027087BB84B3836084BB0E946900BE016F5F47
S11302807F4FCE0102960E94D300811131C080E8D5
S11302900E94410080E690E00E9497008A810E94BB
S11302A0140183E690E00E94970080EC0E944100D4
S11302B088E690E00E94970089810E9414018BE6F1
S11302C090E00E94970089818E3120F085B381608F
S11302D085BB03C085B38E7F85BB8A81863420F0BD
S11302E085B3826085BB0EC085B38D7F85BB0AC094
S11302F080E80E94410081E790E00E94970085B366
S11303008C7F85BB2FEF89E698E121508040904097
S10F0310E1F700C00000B2CFF894FFCF6A
S113031C483A002520202000543A00204320202075
S113032C00444854204572726F72202020202020F3
S105033C0000BB
S9030000FC
